:020000040800F2
:10000000C00C00200101000817150008FB110008B2
:1000100015150008610600084519000800000000D9
:10002000000000000000000000000000831800082D
:1000300063060008000000008D17000885180008FE
:100040001B0100081B0100081B0100081B01000820
:100050001B0100081B0100081B0100081B01000810
:100060001B0100081B0100081B0100081B01000800
:100070001B0100081B0100081B0100081B010008F0
:100080001B0100081B0100081B0100081B010008E0
:100090001B0100081B0100081B0100081B010008D0
:1000A0001B0100081B0100081B0100081B010008C0
:1000B0001B0100081B0100081B0100081B010008B0
:1000C0001B0100081B0100081B0100081B010008A0
:1000D0001B0100081B0100081B0100081B01000890
:1000E0001B0100081B0100081B010008DFF80CD0F1
:1000F00000F024FA004800476D220008C00C0020E0
:100100000648804706480047FEE7FEE7FEE7FEE7B1
:10011000FEE7FEE7FEE7FEE7FEE7FEE7FD18000864
:10012000ED000008202A04DB203A21FA02F0002129
:10013000704721FA02F3D040C2F1200291400843F7
:100140001946704730B50B46014600202022012495
:1001500009E021FA02F59D4205D303FA02F5491B95
:1001600004FA02F52844151EA2F10102F1DC30BDAB
:100170002DE9F05F0546002092469B4688460646DC
:10018000814640241BE02846414647462246FFF769
:10019000C9FF53465A46C01A914110D3114618461A
:1001A000224600F0DDF92D1A67EB01084F46224682
:1001B0000120002100F0D4F917EB00094E41201E68
:1001C000A4F10104DFDC484631462A464346BDE837
:1001D000F09F2DE9FE4F804681EA0300C00F0C46D8
:1001E000009021F0004123F00045B8EB0200A94146
:1001F00005D24046214690461C460B46024623F057
:100200000040104304D14046214603B0BDE8F08FC2
:10021000270DC7F30A00C3F30A510290401A019058
:10022000402866DAC3F3130040F4801B009892461E
:1002300020B10023D2EB030A63EB0B0B0198594664
:10024000C0F14002504600F08BF906460D4650467C
:100250005946019A00F093F910EB0800614100241F
:1002600087EA115284EAE7731A433BD0009A3AB303
:10027000019A012A4FEA075210DC001B61EB0201D0
:100280004FF0004202EA0752CDE90042001C41F55E
:10029000801132462B4600F091F9B6E7001B61EB66
:1002A0000201001C41F5801300185B412018A2F5E3
:1002B000001747EB030140EAD570B6196D4111E014
:1002C0006D084FEA360645EAC0754FEA0752001B33
:1002D00061EB0201001C41F5801149084FEA300032
:1002E0000019514132462B4603B0BDE8F04F00F0F3
:1002F00058B90098012240000023D0EB020263EBC2
:10030000E073009821464FEAE074B8EB000061EB1F
:100310000401E9E783F000435BE781F0004158E71F
:100320002DE9FE4F81EA030404F0004421F000416E
:1003300000944FF0000B23F0004350EA010402D078
:1003400052EA030404D10020014603B0BDE8F08F57
:10035000C3F30A54C1F30A552C44A4F2F3340194B4
:10036000A0FB0254C1F3130141F48011C3F3130342
:1003700043F4801301FB024400FB034E840A970AF6
:1003800044EA815447EA8357A4FB076802958D0A23
:1003900005FB07854FEA932C04FB0C542705029DAF
:1003A0004FEA065847EA1637B5EB08056EEB070C1F
:1003B000870E920E47EA811742EA8312A7FB0201D9
:1003C000B6EB0B0164EB00042B0D43EA0C335E1813
:1003D00044EB1C50DA465146E7FB0201C5F3130417
:1003E0004FEA0B3343EA14534FEA0432019C43EAC9
:1003F0000603A4F10C040294009CCDE900B400F0C3
:10040000DDF8A2E72DE9F04D81EA030404F0004B8A
:1004100021F0004514464FF0000A23F0004150EA55
:10042000050220D054EA01021DD0C5F30A57024646
:10043000C5F31303C1F31300C1F30A5640F480154A
:1004400043F48013A7EB0608101BD64608F2FD38CC
:1004500073EB050002D308F1010801E092185B413B
:10046000B8F1000F03DA00200146BDE8F08D00204E
:100470004FF48011064684460EE0171B73EB050708
:1004800005D3121B63EB050306434CEA010C490834
:100490004FEA300092185B4150EA0107EDD152EA71
:1004A000030012D082EA040083EA0501084303D165
:1004B00000224FF0004308E0101BAB4102D20122A2
:1004C000002302E06FF0010253101AEB06004CEB20
:1004D000085110EB0A0041EB0B01BDE8F04D00F0B4
:1004E00060B8C1F30A52C1F3130140F2FF3341F483
:1004F00080119A4202DA00200146704740F23343ED
:100500009A42A2F2334202DC5242FFF70BBE00F0E5
:1005100027B8000030B5002904DB4FF0004440420A
:1005200064EB0101002B04DB4FF00044524264EB0A
:100530000303994208BF904230BD0000064C074DAE
:1005400006E0E06840F0010394E8070098471034A3
:10055000AC42F6D3FFF7CEFDC8240008E82400081B
:10056000202A04DB203A00FA02F100207047914073
:10057000C2F1200320FA03F3194390407047202A68
:1005800006DBCB17203A41FA02F043EAE07306E0BB
:1005900041FA02F3D040C2F12002914008431946CB
:1005A000704710B5002B08DA401C41F10001921889
:1005B0005B411A4301D120F0010010BD2DE9F04D3F
:1005C00092469B4611B1B1FA81F202E0B0FA80F294
:1005D00020329046FFF7C4FF04460F4640EA0A0067
:1005E00041EA0B0153465A46084303D12046394697
:1005F000BDE8F08D114653EA010015D0C8F1400264
:100600005046FFF78FFD05460E4650465946424676
:10061000FFF7A6FF084301D0012000E000200543BA
:1006200046EAE0762C4337430A984FEA4453A0EB5E
:1006300008004FEAD4240A304FF0000244EA47543D
:100640004FEAD72502D500200146D1E70105101950
:100650006941DDE9084500196941BDE8F04DA0E7B1
:10066000FEE7704770B5044600F000F90546601CCF
:1006700002D004480078044400F0F8F8401BA0427F
:10068000FAD370BD080000202DE9F84FDFF8ACA1C7
:1006900000220AF1040B144601274FF00F090BF159
:1006A000040E00BF0B6807FA04F52B40AB4276D16D
:1006B000DFF88CC14E68A6EB0C0866452BD00DDC2C
:1006C000032E34D005DC36B3012E19D0022E2FD1E3
:1006D0001BE0112E16D0122E2AD119E0B8F5881F72
:1006E00019D006DCB8F5803F15D0B8F5801F1FD1B2
:1006F00011E0B8F5001F0ED0B8F5041F18D10AE0BC
:10070000CA6815E0CA68121D12E0CA6808320FE014
:10071000CA680C320CE08A682AB1012A4FF008023C
:1007200003D0456104E0042202E0056100E00022FC
:10073000FF2B01D8054601E000F104054FEA8406CD
:1007400001D9A6F12006D5F800C009FA06F82CEA6E
:10075000080C02FA06F64CEA060CC5F800C04D6813
:10076000ED0065D5374DAE6946F00106AE61AD6965
:1007700024F0030605F001050095334D06EB050C4A
:10078000DCF80850A607360F09FA06F825EA08052E
:10079000DFF8B880404503D14FF0000817E047E08C
:1007A000DFF8AC80404502D14FF001080FE0DFF8E0
:1007B000A480404502D14FF0020808E0DFF898809D
:1007C000404502D14FF0030801E04FF0040808FA59
:1007D00006F848EA0508CCF808804D68DAF80060A9
:1007E000ED03002D554601DA1E4300E09E432E60C6
:1007F0004D68DBF80060AD03002D5D4601DA1E4355
:1008000000E09E432E604D68DEF80060ED02002D92
:10081000754601DA1E4300E09E432E604D68AD022E
:10082000002D0E4D2E6801DA1E4300E09E432E601F
:10083000641C102CFFF436AFBDE8F88F00040140B3
:1008400000001110001002400000014000080140AB
:10085000000C014000100140001401400C04014054
:100860000AB1016170470904FBE700000148806894
:10087000704700000800002070B504001BD094F8F9
:100880003D00002520B984F83C50204600F030F9A6
:10089000242084F83D002068016821F001010160F6
:1008A00000F0B6FA3D4A6168914201D83C4900E047
:1008B0003C49884201D2012070BD3B492368B0FB0E
:1008C000F1F159606368934206D94FF49673594326
:1008D0004FF47A73B1FBF3F12368491C1962616824
:1008E00091420AD84900401EB0FBF1F0401CC0F311
:1008F0000B0004281ED204201CE0A368CBB301EB3C
:10090000C10202EB0116421EB2FBF6F2521C42F487
:100910008042120536D06BB301EBC10202EB01112C
:10092000401EB0FBF1F0401CC0F30B0040F48040CF
:1009300040F400402168C861D4E9070108432168F8
:100940000860D4E90310084321688860D4E90501F0
:1009500008432168C8602068016841F00101016016
:100960002564202084F83D00256384F83E50002053
:1009700070BD00E008E001EB4106421EB2FBF6F25A
:10098000521CC6E70120D5E701EB4101401EB0FB38
:10099000F1F0401CC0F30B00CAE70000A086010084
:1009A00080841E0000093D0040420F002DE9F84FF1
:1009B0001F4690468A460446DDF82890FFF756FF0A
:1009C000064694F83D0020287ED11923012246498D
:1009D0002046009600F09AFC002875D194F83C005F
:1009E00001287ED0012084F83C0020680168C907F6
:1009F00003D1016841F0010101602068016821F420
:100A000000610160212084F83D00102084F83E0040
:100A100000252564C4F8248067853448E062608D31
:100A2000208533464A465146204600F0FBFB28B15C
:100A3000206C84F83C5004284FD050E02068416975
:100A40008069009032E032464946204600F0D2FCF0
:100A500018B1206C04283BD041E0606A00F101012C
:100A60006162216800780861608DA0F101006085F5
:100A7000208DA0F1010080B2208521684A696FEACB
:100A8000020252070BD450B1606A421C62620078C5
:100A90000861608D401E6085208D401E2085324695
:100AA0004946204600F008FC0028D2D1208D0028BD
:100AB000C9D154F81F0B016841F400710160202076
:100AC000A077E577657700E00BE00020BDE8F88FC0
:100AD0002068016841F4007101600120F6E70320FD
:100AE000F4E70220F2E70000020010000000FFFF20
:100AF00000B50068104985B088421AD14FF44070A3
:100B00000090122001900320039069460B48FFF7E4
:100B1000BBFD0B48416841F0E06141F002014160DA
:100B20000848C16941F40011C161C06900F40010B6
:100B3000049005B000BD000000540040000C0140CE
:100B40000000014000100240024881680278114410
:100B50008160704708000020074810B5016841F027
:100B600010010160032000F091F8002000F006F869
:100B700000F024F8002010BD0020024070B50D4D9B
:100B800004464FF47A712878B1FBF0F00A490968FD
:100B9000B1FBF0F000F019FB48B9102C07D200228D
:100BA0002146501E00F052F800206C6070BD0120FC
:100BB00070BD00000800002014000020214808B586
:100BC000816941F001018161816901F001010091B8
:100BD000C16941F08051C161C06900F0805000904E
:100BE000032000F053F8002211466FF00B0000F0D4
:100BF0002DF8002211466FF00A0000F027F80022BD
:100C000011466FF0090000F021F800221146501F34
:100C100000F01CF800221146101F00F017F8002207
:100C20001146901E00F012F800221146501E00F0EE
:100C30000DF80548416821F0E06141F00071416024
:100C400008BD00000010024000000140F0B40E4B4F
:100C50001B680C46C3F30223C3F10705042D00D91A
:100C60000425191D072901D2002300E0DB1E0126FF
:100C700006FA05F1491E214099409E40761E164015
:100C80003143F0BC00F048BC0CED00E0064900F038
:100C9000070208684FF6FF03184040EA0220034AA3
:100CA00010430860704700000CED00E00000FA05FA
:100CB0002DE9F047DFF83C8105460E46D8F80000E4
:100CC00000F00700B0420CD2D8F8001021F0070164
:100CD0003143C8F80010D8F8000000F00700B04217
:100CE00063D12878444C800705D56068A96820F056
:100CF000F000084360602878C00745D06868012884
:100D000016D02168022816D0890700294DDA6168BB
:100D100021F0030101436160FFF7A8FD6968074600
:100D200041F2883001290FD00229814619D027E0ED
:100D300021688903E9E78901E7E700BFFFF796FD2E
:100D4000C11B494501D918E081466068C0F38100A4
:100D50000128F3D118E000BFFFF788FDC11B49450A
:100D60000BD86068C0F381000228F5D10CE000BF09
:100D7000FFF77CFDC11B494502D90320BDE8F08780
:100D8000606810F00C0FF3D1D8F80010404601F065
:100D90000701B1420BD9016821F00701314301601D
:100DA000006800F00700B04201D00120E6E7287893
:100DB000400705D56068E96820F4E060084360609A
:100DC0002878000706D56068296920F4605040EA59
:100DD000C100606000F02CF86168084AC1F303119B
:100DE000515CC840064908600020FFF7C7FE00209C
:100DF000C4E700000020024000100240AF240008B9
:100E00001400002001480068704700001400002012
:100E10000448054900684968044AC1F30221515C4D
:100E2000C84070471400002000100240BF24000892
:100E300014A185B0D1E90023D1E90201CDE9020175
:100E400014A0CDE90023144A0068049051681348A7
:100E500001F00C03042B10D0082B0ED1C1F38343F7
:100E6000C9031DF803000AD5516804AAC1F3404123
:100E7000515C0A4A5043B0FBF1F005B07047084995
:100E80004843FAE702030405060708090A0B0C0D9C
:100E90000E0F1010010200000010024000127A0034
:100EA00000093D002DE9F84F04460078BB4DC0070E
:100EB00048D06868C0F38100012807D06868C0F393
:100EC0008100022809D16868C00306D5286880031C
:100ED00038D5606800286FD034E06068B0F5803F96
:100EE0000BD010B1B0F5A02F11D0286820F48030BD
:100EF0002860286820F4802002E0286840F48030D0
:100F00002860606888B1FFF7B1FC064609E02868F0
:100F100040F480202860F0E7FFF7A8FC801B6428DD
:100F200076D828688003F7D50CE0FFF79FFC0646CB
:100F300005E000BFFFF79AFC801B6428F0D8286802
:100F40008003F7D42078964E80074FF001094FF0C8
:100F500000083BD5686810F00C0F07D06868C0F334
:100F60008100022809D16868C00306D42868800778
:100F700014D5206901281FD110E02069B0B1C6F84E
:100F80000090FFF773FC074605E000BFFFF76EFC1B
:100F9000C01B0228C4D828688007F7D52868616973
:100FA00020F0F80040EAC10028600FE0C6F8008099
:100FB000FFF75CFC074606E0EDE000BFFFF756FCDC
:100FC000C01B0228ACD828688007F7D42078000717
:100FD0002ED57448A169E1B1C0F80090FFF746FC36
:100FE000074604E0FFF742FCC01B022810D8686ADD
:100FF0008007F7D56C484FF4FA510068B0FBF1F068
:10100000009000BF0098411E00910028F9D10FE028
:1010100082E0C0F80080FFF729FC074605E000BF2A
:10102000FFF724FCC01B022876D8686A8007F7D433
:101030002078400761D5E8690027C00008D4E86936
:1010400040F08050E861E869012700F0805000908E
:1010500056480168C90513D40168834641F480717C
:101060000160FFF703FC824606E000BFFFF7FEFBCE
:10107000A0EB0A0064284FD8DBF80000C005F5D5C6
:10108000E06801280AD008B1052813D0286A20F0AA
:1010900001002862286A20F0040002E0286A40F07B
:1010A00001002862E06841F2883B98B1FFF7DEFB5F
:1010B00082460BE0286A40F004002862EEE700BF99
:1010C000FFF7D4FBA0EB0A0159455CD8286A8007DA
:1010D000F6D50CE0FFF7CAFB824605E0FFF7C6FB3A
:1010E000A0EB0A0159454ED8286A8007F6D4012F93
:1010F00003D1E86920F08050E861E06990B3696845
:10110000C1F38101022946D00228C6F8608004D0CC
:10111000FFF7ACFB044639E035E0FFF7A7FB0746D5
:1011200005E000BFFFF7A2FBC01B02282BD82868F0
:101130008001F7D4206AB0F5803F05D16868A168C6
:1011400020F4003008436860D4E908010843696866
:1011500021F4741108436860C6F86090FFF786FBBD
:10116000044606E015E000BFFFF780FB001B0228E5
:1011700009D828688001F7D50BE000BFFFF776FBA0
:10118000001B022802D90320BDE8F88F28688001DF
:10119000F4D40020F8E70120F6E700000010024038
:1011A00000004242800442421400002000700040CF
:1011B0004FF0E0210428086903D020F00400086102
:1011C000704740F00400FAE7704710B5401EB0F1D8
:1011D000807F01D3012010BD4FF0E02460610F211A
:1011E000601700F099F90020A0610720206100201D
:1011F00010BD10B5FFF7E8FF10BDFEE701684A69B2
:10120000D24352050CD46FF480624A61042130301D
:1012100001610021016020224273017301207047A7
:1012200000207047F8B50446C06A1E460D461746B2
:10123000042807D0012805D010F5803F02D0206B8C
:10124000122804D12068016841F4807101601346BE
:1012500000224FF001112046009600F057F8A0B987
:101260002069B0F5804F12D00620216800EAD51021
:1012700040F0F000086133463A460E49204600F03F
:1012800075F838B1206C042811D00320F8BD05F0A2
:10129000FE0000E0E8B221680861064933463A469C
:1012A000891F204600F062F80028EBD1F8BD01202C
:1012B000F8BD00000800010070B516460D46044652
:1012C0001DE02046FFF79AFF08B1012070BD681CA1
:1012D00015D025B1FFF7CAFA801BA8420FD904F137
:1012E0003004206940F0200020614FF000002060B1
:1012F0004FF02001617320734FF0030070BD206830
:101300004069C0434007DCD4002070BD2DE9F047A0
:101310001E4690460D460446C1F30747DDF820906F
:1013200012E0701C10D02EB1FFF7A0FAA0EB09005C
:10133000B04209D9002044F8300F20216173A07316
:1013400020730320BDE8F0872068012F0AD0806950
:1013500025EA00000004000C06D000214145E0D041
:101360000020EFE74069F3E70121F7E72DE9F047B7
:101370009A4691460D46044600264FF02008C1F3D8
:1013800007472AE020684069C043400512D420681E
:10139000016841F40071016021686FF48060486168
:1013A00004202064266384F83D8084F83C6001209A
:1013B000BDE8F08719F101000FD0B9F1000F05D099
:1013C000FFF754FAA0EB0A01494506D944F8306FFB
:1013D00084F80D8026730320EAE72068012F07D0E8
:1013E000D0F8180025EA00000004000CE0D0C9E79E
:1013F0004069F7E770B516460D4604461DE02046E5
:10140000FFF7FCFE08B1012070BD681C15D025B1A6
:10141000FFF72CFA801BA8420FD904F13004206991
:1014200040F0200020614FF0000020604FF02001CC
:10143000617320734FF0030070BD20684069C043A2
:101440000006DCD4002070BD30B51B4885B0816932
:1014500041F010018161816901F0100104918169FD
:1014600041F020018161816901F0200104918169CD
:1014700041F004018161816901F0040104918169F5
:1014800041F00801816180690C4D00F008004FF4C3
:1014900000540490002221462846FFF7E1F901207C
:1014A000CDE90040002002900220039069462846C2
:1014B000FFF7EAF805B030BD00100240001001400F
:1014C0000E4810B50C4901600D49416000214FF4F0
:1014D00080428160C0E9031241618161C1610162A2
:1014E000FFF7CAF9002805D0BDE81040422105A049
:1014F00000F029BA10BD0000005400401800002080
:10150000A08601002E2E2F5372632F6932632E6343
:1015100000000000FEE770470907090E002803DA03
:1015200000F00F00024A00E0024A815470470000B8
:1015300014ED00E000E400E02DE9FC41104DE86905
:1015400040F40010E86100240E4F26464FF47A78EC
:101550008DF80460385D8DF80500022301AA78211A
:101560000948CDF80080FFF721FA641C202CEFDB3E
:1015700000F00CF8E86920F40010E861BDE8FC8197
:10158000001002408F2400081800002008B5074909
:1015900040200A4608704FF47A70009040F20143F0
:1015A00078210348FFF702FA08BD00006C00002014
:1015B000180000200FB470B5044606AA104805991B
:1015C00000F0C2F9C1B200220D48202302E04354CA
:1015D000491CC9B21529FAD90A4D4275287818B99B
:1015E000FFF7AAFF01202870641E054A002120B2DF
:1015F00000F02AF900F008F870BC5DF814FB000058
:101600006E080020040000202DE9FE4F4FF0010875
:101610004FF48064DFF860B1002645464FF47A7AD3
:101620004FEA0409554F1BF80520785D824207D028
:101630000BF80500AC4200DD2C46AE4200DA2E4627
:10164000002E7CD0A5F10800B04203DC4C482840B5
:101650007F2874D14B48C16941F40011C161B8F1D0
:10166000000F27D04FF000088DF804808DF805801A
:10167000022301AA78214448CDF800A0FFF796F98B
:101680008DF8048010208DF80500022301AA78212E
:101690003D48CDF800A0FFF789F98DF8048040207F
:1016A0008DF80500022301AA78213748CDF800A063
:1016B000FFF77CF900208DF80400E01704EB506080
:1016C000B02101EBE0108DF80500022301AA78217A
:1016D0002D48CDF800A0FFF769F900208DF804002F
:1016E000A01CC117029100EB117121F00F01401AEB
:1016F0008DF80500022301AA78212348CDF800A027
:10170000FFF754F900208DF804000299A01C00EBAB
:10171000516121F07F01411A102000EB21108DF85A
:101720000500022301AA78211748CDF800A0FFF791
:101730003DF9274417F8010C0290402000E015E025
:1017400007F8010C301B801C83B27A1E78210E48EA
:10175000CDF800A0FFF72AF9029807F8010C094814
:101760004C460026C16921F40011C1616D1C4D4534
:101770007FF758AFBDE8FE8F6D0400206C0000209D
:101780007F00008000100240180000207047000019
:10179000F0B515290ADA082808DA01EB41014900F9
:1017A000C001203A0DB200B2632A01D30020F0BD7F
:1017B000224B2349DFF88CC05E880024D2B2012E70
:1017C00029D02844604402EB820546784F5D2944C5
:1017D0003E43467086784D782E438670C5788E7865
:1017E0003543C5700579CE7835430571457909795A
:1017F0000D43457184712032D0B281281BD06028FE
:1018000019D07E2817D05E2815D00120A3F8020039
:10181000B3F90200F0BD02EB820628448F5D6044FC
:10182000314447704D7885708D78C570CD780571DD
:1018300009794171DEE75C80EAE7000004000020DE
:10184000A02200086C0000202DE9F04116460D464C
:101850000746002409E00A2A10D029463846FFF737
:1018600097FF2844641C05B2E4B2325D0AB1152C1E
:10187000F1D3FFF7C9FE2046BDE8F081641CE0B259
:10188000FAE7704710B5FFF75FF9BDE81040FFF7C2
:10189000B0BC30B58FB001210804CDE900100024A0
:1018A000029402250491CDE907504FF4E01009900D
:1018B0006846FFF7F7FA00B1FEE70F20CDE90A0509
:1018C0004FF48060CDE90C4002210AA80E94FFF786
:1018D000EFF900B1FEE7FFF795FA4FF47A71B0FB2C
:1018E000F1F0FFF772FC0420FFF762FC00221146C2
:1018F000501EFFF7ABF90FB030BD00000D48016876
:1019000041F00101016041680B4A114041600168EA
:101910000A4A11400160016821F480210160416898
:1019200021F4FE0141604FF41F0181600449C003AE
:1019300008607047001002400000FFF8FFFFF6FE4D
:1019400008ED00E0FEE7FEE737B514460846064B13
:101950006A46214600F0C8F804466946002000F0B7
:1019600066FC20463EBD00002F22000802E008C8A9
:10197000121F08C1002AFAD170477047002001E009
:1019800001C1121F002AFBD1704700002DE9FF5F43
:10199000DDE90220010DDDF838B0024310D10F98C7
:1019A00001244CA2012808D0002100980F9BC0E917
:1019B0000021C0E90243BDE8FF9F6FEA0B01F4E795
:1019C000A1F2FF3144F6105041430D140F98012845
:1019D0000ED0A5EB0B00401C4FF000043E4EDFF88C
:1019E000FC90B0F1000AA04605DACAF1000717E042
:1019F000CBF10000F0E7074612E0F80707D02246D7
:101A0000334640464946FEF78BFC804689462246CF
:101A1000334610461946FEF783FC04460E467F10F7
:101A2000002FEAD1DDE90201BAF1000F42464B4630
:101A300002DAFEF775FC01E0FEF7E4FC04460E4610
:101A40000022274BFEF766FD03D84FF0FF3001461A
:101A500007E00022234B20463146FEF7BAFBFEF793
:101A600040FD102409E0002C0ADB0A220023FEF7C7
:101A70007FFB019B30321A55641E50EA0102F2D1FD
:101A8000641C019AC4F1110314440F9A012A09D06D
:101A90000122084301D15B450FDD4FF0000205F143
:101AA00001050DE0084303D1A3EB0B056D1E09E012
:101AB00000204FF0110B0F9088E701DA00226D1E15
:101AC000002A83D000980F99C0E90231C0E900458F
:101AD00071E7000030000000000024400000F03FEB
:101AE0000000F0430000E03F2DE9FF4F95B09B461A
:101AF00089460646002512E2252878D10024761C66
:101B0000F94A2746012105943378203B01FA03F076
:101B1000104202D00443761CF6E730782A2811D010
:101B20006FF02F033078A0F13002092A16D8059AF9
:101B300044F0020402EB820203EB42021044761CE2
:101B40000590EFE759F8042B0592002A03DA50427A
:101B500044F40054059044F00204761C30782E289A
:101B600016D116F8010F44F004042A280DD06FF0A6
:101B70002F023078A0F13003092B09D807EB870337
:101B800002EB4303C718761CF3E759F8047B761C75
:101B900030786C280FD006DC4C2817D068280DD080
:101BA0006A2814D104E0742810D07A280FD10DE0EF
:101BB00044F400140AE044F4801401E044F44014B6
:101BC0007278824202D1761C04F58014761C30783B
:101BD00066280BD013DC582877D009DC002875D094
:101BE0004528F6D04628F4D047281AD19FE118E0BE
:101BF000632835D0642879D0652812D197E1702800
:101C000073D008DC6728F1D069286FD06E280DD01A
:101C10006F2806D1B5E073282CD0752875D07828A8
:101C200074D05A46179990476D1C76E1C4F3025060
:101C3000022809D003280DD0D9F8001004280DD0AF
:101C40000D6009F1040968E1D9F80010EA17C1E94B
:101C50000052F6E7D9F800100D80F2E70D70F0E7BA
:101C600019F8041B8DF8001000208DF80100EA46D9
:101C7000012003E059F804AB4FF0FF3061074FF04B
:101C8000000102D40DE008F101018846B9420FDAE3
:101C90008045F8DB1AF808100029F4D108E008F1B3
:101CA000010188468142FADB1AF808100029F6D1B2
:101CB00005985B46A0EB080721463846179A00F0C6
:101CC0009EFA284400EB080507E04DE02BE10DE00B
:101CD0001AF8010B5A4617999047B8F10108F7D244
:101CE0005B4621463846179A14E142E00A220092E8
:101CF000C4F302524FF0000A022A08D059F804CB6C
:101D0000032A4FEAEC710AD00DE029E02AE009F13C
:101D1000070121F00702F2E802C1914609E00FFA3B
:101D20008CFC4FEAEC71042A03D14FFA8CFC4FEA89
:101D3000EC71002907DA0A460021DCF1000C61EBA6
:101D400002012D2202E0220504D52B228DF8042069
:101D5000012203E0E20701D02022F7E7904653E09A
:101D60000A2102E010220DE010214FF0000A00913C
:101D70000BE010224FF0000A44F004040827009200
:101D800003E008224FF0000A0092C4F30252022A34
:101D900005D059F804CB0021032A08D009E009F145
:101DA000070121F00702F2E802C1914605E01FFA9F
:101DB0008CFC042A01D10CF0FF0C4FF00008220724
:101DC00022D5702827D0009B83F0100353EA0A0322
:101DD00009D15CEA010206D030228DF804208DF88A
:101DE000050002229046009B83F0080353EA0A0391
:101DF0000AD15CEA010201D1620705D530228DF8D3
:101E000004204FF001087F1E582809D037A0039006
:101E10000EA8029013E040228DF804200122E1E791
:101E200037A0F4E753466046009AFEF7A1F98446CE
:101E30000398825C0298A0F10100029002705CEAB3
:101E40000100EFD1029806A9A1EB000000F1200AE1
:101E5000600702D524F4803400E00127574502DDF5
:101E6000A7EB0A0000E0002000EB0A0100900598B3
:101E70004144A0EB01000590E00306D45B462146F7
:101E8000179A059800F0BBF90544002706E001A861
:101E90005A46C05D179990476D1C7F1C4745F6DB7D
:101EA000E0030CD55B462146179A059800F0A7F988
:101EB000054404E030205A46179990476D1C00995C
:101EC000481E00900029F5DC08E0029802995A4665
:101ED0000078491C0291179990476D1CBAF10001D6
:101EE000AAF1010AF1DC6BE109280100303132333B
:101EF0003435363738396162636465660000000046
:101F0000303132333435363738394142434445462F
:101F10000000000000F060F9054406F10106307889
:101F200000287FF4E9AD19B02846BDE8F08F6207BC
:101F300000D4062709F1070222F0070CFCE802236F
:101F4000E14603F000485FEA080C02D00FF27C2C57
:101F50000DE05FEA045C02D50FF2742C07E05FEA43
:101F6000C47C02D00FF26C2C01E0AFF2700C4FF089
:101F7000FF3823F00043CDF850C065280CD006DCB4
:101F8000452809D046281DD047283ED13EE0662886
:101F900018D0672839D139E00021112F01DB112039
:101FA00000E0781CCDE9000106A90EA8FFF7EEFCC1
:101FB000DDE90F010E9A03910021009207F1010A59
:101FC00004914EE04FF000400097CDE9011006A9C2
:101FD0000EA8FFF7DBFCDDE90F0203920E9B1199BF
:101FE0000022DDF80CA00093049219B907F1010159
:101FF00000EB010AB7EB0A0004D4C0F1FF3007F18F
:10200000010A0490AAEB0700019046E0012F00DAD4
:1020100001270021112F01DD112000E03846CDE914
:10202000000106A90EA8FFF7B1FCDDE90F010E9A29
:102030000391002104910092BA4621070CD4039920
:10204000514500DA8A46BAF1010F05DD009AAAF17E
:102050000101515C302908D0B84202DA10F1040FB6
:1020600006DA0121CDE9011017E0AAF10101E9E743
:10207000002805DC049901440491AAEB000102E068
:10208000411C514500DD8A460499A0EB010000F196
:10209000010001904FF000400290200704D4019805
:1020A000504501DBCDF8048000208DF84F000298E8
:1020B0000DF14F07B0F1004F25D02B200E90029864
:1020C0004FF0020800280CDA404202902D200E90BA
:1020D00007E00A210298FEF735F83031029007F840
:1020E000011DB8F10001A8F10108F2DC02980028F6
:1020F000EFD1791E0E980870307800F0200040F083
:10210000450007F8020D12A8A0EB070000F1070830
:102110001498007800B1012000EB0A01019801EB4E
:10212000E07105984144A0EB0100A0F10100059089
:10213000E00306D45B462146179A059800F05FF845
:1021400005441498007820B15A461799904705F134
:102150000105E00323D55B462146179A059800F058
:102160004EF805441BE00498002807DBDDE9030175
:10217000884203DD0098405C179901E017993020F0
:102180005A46904704986D1C401C04900198401ECC
:10219000019004D12E205A46179990476D1CBAF130
:1021A0000001AAF1010ADEDC05E017F8010B5A462E
:1021B000179990476D1CB8F10001A8F10108F4DCF3
:1021C0005B462146179A0598A4E600002D00000002
:1021D0002B000000200000002DE9F04104460025FE
:1021E0001E461746880405D406E039462020B0472D
:1021F00005F10105641EF8D52846BDE8F0812DE9FA
:10220000F041044600251E469046C80301D53027FC
:1022100000E02027880405D506E041463846B0474F
:1022200005F10105641EF8D52846BDE8F0810A686D
:10223000531C0B601070704710B5074C07A10320AA
:102240002268FFF7B7F92068401C2060BDE8104005
:102250004FF47A70FEF706BA0000002056617269EA
:102260006176656C2025692020200000FEF774FC53
:10227000FFF70FFBFFF7E8F8FFF722F900F004F88B
:10228000FFF7DAFFFCE7000001A10120FFF792B998
:102290002053544D333246313033433854362000C6
:1022A000000000000000002F0000000700070014DD
:1022B0007F147F14242A7F2A12231308646236496C
:1022C0005522500005030000001C2241000041225D
:1022D0001C0014083E081408083E08080000A0600E
:1022E00000080808080800606000002010080402C8
:1022F0003E5149453E00427F4000426151494621DE
:1023000041454B311814127F1027454545393C4A49
:102310004949300171090503364949493606494999
:10232000291E0036360000005636000008142241EF
:102330000014141414140041221408020151090657
:10234000324959513E7C1211127C7F494949363E2F
:10235000414141227F4141221C7F494949417F0936
:102360000909013E4149497A7F0808087F00417FF9
:1023700041002040413F017F081422417F404040FE
:10238000407F020C027F7F0408107F3E4141413EA6
:102390007F090909063E4151215E7F0919294646F8
:1023A0004949493101017F01013F4040403F1F2021
:1023B00040201F3F4038403F6314081463070870F3
:1023C00008076151494543007F41410055AA55AA7C
:1023D000550041417F00040201020440404040405A
:1023E000000102000020545454787F484444383897
:1023F00044444420384444487F3854545418087E98
:1024000009010218A4A4A47C7F0804047800447D78
:1024100040004080847D007F1028440000417F40C0
:10242000007C041804787C08040478384444443858
:10243000FC2424241818242418FC7C0804040848CC
:1024400054545420043F4440203C4040207C1C20F5
:1024500040201C3C4030403C44281028441CA0A094
:10246000A07C4464544C4400107C82000000FF00B7
:102470000000827C1000020102010000060909062A
:102480004E7101714E00000201003844C44420AE78
:10249000D580A83FD300408D142000A1C8DA128156
:1024A000CFD9F1DB40A4A62EAF2200FF21007F0090
:1024B00000000000000000010203040607080900F4
:1024C0000000000102030400E824000800000020CE
:1024D000180000006C1900080025000818000020F2
:1024E000A80C00007C19000800000000000001009A
:1024F00001000000100000000000000000A24A04DB
:04000005080000ED02
:00000001FF
