:020000040800F2
:1000000010040020010100085F0A0008F30900083D
:100010005D0A000849010008450B000800000000C7
:10002000000000000000000000000000830A00083B
:100030004B01000800000000810A0008850A000842
:100040001B0100081B0100081B0100081B01000820
:100050001B0100081B0100081B0100081B01000810
:100060001B0100081B0100081B0100081B01000800
:100070001B0100081B0100081B0100081B010008F0
:100080001B0100081B0100081B0100081B010008E0
:100090001B0100081B0100081B0100081B010008D0
:1000A0001B0100081B0100081B0100081B010008C0
:1000B0001B0100081B0100081B0100081B010008B0
:1000C0001B0100081B0100081B0100081B010008A0
:1000D0001B0100081B0100081B0100081B01000890
:1000E0001B0100081B0100081B010008DFF80CD0F1
:1000F00000F018F800480047990B00081004002091
:100100000648804706480047FEE7FEE7FEE7FEE7B1
:10011000FEE7FEE7FEE7FEE7FEE7FEE7FD0A000872
:10012000ED000008064C074D06E0E06840F00103D2
:1001300094E8070098471034AC42F6D3FFF7DAFF93
:10014000C00B0008E00B0008FEE7704770B50446DE
:1001500000F000F90546601C02D004480078044411
:1001600000F0F8F8401BA042FAD370BD0000002058
:100170002DE9F84FDFF8ACA100220AF1040B144678
:1001800001274FF00F090BF1040E00BF0B6807FAAF
:1001900004F52B40AB4276D1DFF88CC14E68A6EB5C
:1001A0000C0866452BD00DDC032E34D005DC36B3AD
:1001B000012E19D0022E2FD11BE0112E16D0122E97
:1001C0002AD119E0B8F5881F19D006DCB8F5803FB0
:1001D00015D0B8F5801F1FD111E0B8F5001F0ED063
:1001E000B8F5041F18D10AE0CA6815E0CA68121DE4
:1001F00012E0CA6808320FE0CA680C320CE08A6864
:100200002AB1012A4FF0080203D0456104E004221C
:1002100002E0056100E00022FF2B01D8054601E065
:1002200000F104054FEA840601D9A6F12006D5F8AD
:1002300000C009FA06F82CEA080C02FA06F64CEAA5
:10024000060CC5F800C04D68ED0065D5374DAE69A8
:1002500046F00106AE61AD6924F0030605F0010524
:100260000095334D06EB050CDCF80850A607360F59
:1002700009FA06F825EA0805DFF8B880404503D1F9
:100280004FF0000817E047E0DFF8AC80404502D1AE
:100290004FF001080FE0DFF8A480404502D14FF095
:1002A000020808E0DFF89880404502D14FF00308CB
:1002B00001E04FF0040808FA06F848EA0508CCF80F
:1002C00008804D68DAF80060ED03002D554601DA2C
:1002D0001E4300E09E432E604D68DBF80060AD03D6
:1002E000002D5D4601DA1E4300E09E432E604D68FE
:1002F000DEF80060ED02002D754601DA1E4300E0D5
:100300009E432E604D68AD02002D0E4D2E6801DA21
:100310001E4300E09E432E60641C102CFFF436AF99
:10032000BDE8F88F000401400000111000100240E9
:100330000000014000080140000C01400010014095
:10034000001401400C0401400AB101617047090426
:10035000FBE70000014880687047000000000020B3
:1003600002488168027811448160704700000020D3
:10037000074810B5016841F010010160032000F04A
:1003800091F8002000F006F800F024F8002010BDDD
:100390000020024070B50D4D04464FF47A71287864
:1003A000B1FBF0F00A490968B1FBF0F000F009FB7D
:1003B00048B9102C07D200222146501E00F052F8F6
:1003C00000206C6070BD012070BD000000000020A6
:1003D0000C000020214808B5816941F001018161CC
:1003E000816901F001010091C16941F08051C16151
:1003F000C06900F080500090032000F053F8002204
:1004000011466FF00B0000F02DF8002211466FF03E
:100410000A0000F027F8002211466FF0090000F0F2
:1004200021F800221146501F00F01CF8002211464E
:10043000101F00F017F800221146901E00F012F86D
:1004400000221146501E00F00DF80548416821F0C9
:10045000E06141F00071416008BD00000010024001
:1004600000000140F0B40E4B1B680C46C3F302239E
:10047000C3F10705042D00D90425191D072901D250
:10048000002300E0DB1E012606FA05F1491E21408B
:1004900099409E40761E16403143F0BC00F0E0BA11
:1004A0000CED00E0064900F0070208684FF6FF0374
:1004B000184040EA0220034A1043086070470000D9
:1004C0000CED00E00000FA052DE9F047DFF83C8173
:1004D00005460E46D8F8000000F00700B0420CD2E6
:1004E000D8F8001021F007013143C8F80010D8F8FF
:1004F000000000F00700B04263D12878444C800728
:1005000005D56068A96820F0F0000843606028788D
:10051000C00745D06868012816D02168022816D087
:10052000890700294DDA616821F003010143616008
:10053000FFF710FF6968074641F2883001290FD0A4
:100540000229814619D027E021688903E9E789015A
:10055000E7E700BFFFF7FEFEC11B494501D918E0E0
:1005600081466068C0F381000128F3D118E000BF24
:10057000FFF7F0FEC11B49450BD86068C0F381004E
:100580000228F5D10CE000BFFFF7E4FEC11B49458E
:1005900002D90320BDE8F087606810F00C0FF3D19A
:1005A000D8F80010404601F00701B1420BD90168AC
:1005B00021F0070131430160006800F00700B042FC
:1005C00001D00120E6E72878400705D56068E96892
:1005D00020F4E060084360602878000706D5606872
:1005E000296920F4605040EAC100606000F01CF806
:1005F0006168084AC1F30311515CC84006490860AC
:100600000020FFF7C7FE0020C4E7000000200240E2
:1006100000100240B00B00080C00002001480068E8
:10062000704700000C00002014A185B0D1E9002320
:10063000D1E90201CDE9020114A0CDE90023144A59
:10064000006804905168134801F00C03042B10D08B
:10065000082B0ED1C1F38343C9031DF803000AD54B
:10066000516804AAC1F34041515C0A4A5043B0FBAF
:10067000F1F005B0704708494843FAE70203040562
:10068000060708090A0B0C0D0E0F101001020000DE
:100690000010024000127A0000093D002DE9F84FD9
:1006A00004460078BB4DC00748D06868C0F381009D
:1006B000012807D06868C0F38100022809D1686862
:1006C000C00306D52868800338D5606800286FD03D
:1006D00034E06068B0F5803F0BD010B1B0F5A02FCA
:1006E00011D0286820F480302860286820F4802009
:1006F00002E0286840F480302860606888B1FFF725
:1007000029FE064609E0286840F480202860F0E7CA
:10071000FFF720FE801B642876D828688003F7D571
:100720000CE0FFF717FE064605E000BFFFF712FEDC
:10073000801B6428F0D828688003F7D42078964E70
:1007400080074FF001094FF000083BD5686810F0B2
:100750000C0F07D06868C0F38100022809D16868CF
:10076000C00306D42868800714D5206901281FD14A
:1007700010E02069B0B1C6F80090FFF7EBFD074626
:1007800005E000BFFFF7E6FDC01B0228C4D82868BB
:100790008007F7D52868616920F0F80040EAC100B9
:1007A00028600FE0C6F80080FFF7D4FD074606E09A
:1007B000EDE000BFFFF7CEFDC01B0228ACD82868D3
:1007C0008007F7D4207800072ED57448A169E1B1DD
:1007D000C0F80090FFF7BEFD074604E0FFF7BAFD42
:1007E000C01B022810D8686A8007F7D56C484FF400
:1007F000FA510068B0FBF1F0009000BF0098411E74
:1008000000910028F9D10FE082E0C0F80080FFF7E6
:10081000A1FD074605E000BFFFF79CFDC01B0228B5
:1008200076D8686A8007F7D42078400761D5E869F0
:100830000027C00008D4E86940F08050E861E8690A
:10084000012700F08050009056480168C90513D474
:100850000168834641F480710160FFF77BFD8246A9
:1008600006E000BFFFF776FDA0EB0A0064284FD832
:10087000DBF80000C005F5D5E06801280AD008B112
:10088000052813D0286A20F001002862286A20F089
:10089000040002E0286A40F001002862E06841F2AA
:1008A000883B98B1FFF756FD82460BE0286A40F07E
:1008B00004002862EEE700BFFFF74CFDA0EB0A0141
:1008C00059455CD8286A8007F6D50CE0FFF742FD51
:1008D000824605E0FFF73EFDA0EB0A0159454ED8E0
:1008E000286A8007F6D4012F03D1E86920F08050F0
:1008F000E861E06990B36968C1F38101022946D0DB
:100900000228C6F8608004D0FFF724FD044639E0D1
:1009100035E0FFF71FFD074605E000BFFFF71AFDB2
:10092000C01B02282BD828688001F7D4206AB0F5B4
:10093000803F05D16868A16820F4003008436860F2
:10094000D4E908010843696821F474110843686018
:10095000C6F86090FFF7FEFC044606E015E000BF15
:10096000FFF7F8FC001B022809D828688001F7D59A
:100970000BE000BFFFF7EEFC001B022802D90320AA
:10098000BDE8F88F28688001F4D40020F8E7012042
:10099000F6E700000010024000004242800442429C
:1009A0000C000020007000404FF0E021042808698E
:1009B00003D020F004000861704740F00400FAE71B
:1009C000704710B5401EB0F1807F01D3012010BDEB
:1009D0004FF0E02460610F21601700F041F8002023
:1009E000A06107202061002010BD10B5FFF7E8FFCF
:1009F00010BDFEE730B5174885B0816941F01001A0
:100A00008161816901F010010491816941F0200147
:100A10008161816901F020010491816941F0040143
:100A2000816180690C4D00F004004FF40054049083
:100A3000002221462846FFF787FC0120CDE900402F
:100A4000002002900220039069462846FFF790FBA1
:100A500005B030BD0010024000100140FEE77047B5
:100A60000907090E002803DA00F00F00024A00E02F
:100A7000024A81547047000014ED00E000E400E0F9
:100A80007047704710B5FFF76BFCBDE81040FFF7EB
:100A9000ACBF30B58FB001210804CDE900100024AF
:100AA000029402250491CDE907504FF4E01009901B
:100AB0006846FFF7F3FD00B1FEE70F20CDE90A0518
:100AC0004FF48060CDE90C4002210AA80E94FFF794
:100AD000FBFC00B1FEE7FFF7A1FD4FF47A71B0FB1C
:100AE000F1F0FFF76EFF0420FFF75EFF00221146D2
:100AF000501EFFF7B7FC0FB030BD00000D48016875
:100B000041F00101016041680B4A114041600168F8
:100B10000A4A11400160016821F4802101604168A6
:100B200021F4FE0141604FF41F0181600449C003BC
:100B300008607047001002400000FFF8FFFFF6FE5B
:100B400008ED00E0FEE702E008C8121F08C1002A15
:100B5000FAD170477047002001E001C1121F002A3E
:100B6000FBD1704770B50B4D4FF400540022214665
:100B70002846FFF7E9FB4FF4FA763046FFF7E6FA2E
:100B8000012221462846FFF7DFFB3046BDE87040D2
:100B9000FFF7DCBA00100140FFF7EAFBFFF779FF2F
:100BA000FFF728FF00F003F8FFF7DCFFFCE77047D2
:100BB000000000000000000001020304060708090D
:100BC000E00B00080000002010000000460B0008A9
:100BD000F00B00081000002000040000560B000875
:100BE00001000000100000000000000000A24A0404
:04000005080000ED02
:00000001FF
